:020000040800F2
:100000005808002061020008B54C0008693A000851
:10001000114A000881140008CD55000800000000B6
:10002000000000000000000000000000654D000816
:100030008514000800000000254D0008BD4D000893
:100040007B0200087B0200087B0200087B0200089C
:100050007B0200087B0200087B0200087B0200088C
:100060007B0200087B0200087B0200087B0200087C
:100070007B0200087B0200087B0200087B0200086C
:100080007B0200087B0200087B0200087B0200085C
:100090007B0200087B0200087B0200087B0200084C
:1000A0007B0200087B0200087B0200087B0200083C
:1000B0007B0200087B020008354E00087B02000826
:1000C0007B0200087B0200087B0200087B0200081C
:1000D0007B0200087B0200087B0200087B0200080C
:1000E0007B0200087B0200087B02000800F002F897
:1000F00000F0A6F814A696E8000CB244B344DA4522
:1001000001D100F09DF8BAE80F000FA696E8300084
:10011000A5EB040504EB0607AAEB0704A7F101070A
:100120004FEA15154FEA3414A4F10104AC4201D38F
:1001300000F086F813F0010F18BFFB1A43F001031B
:1001400000F001F8DBE71847B8790000D879000023
:10015000103A24BF78C878C1FAD8520724BF30C8F3
:1001600030C144BF04680C60704700007047000055
:100170000023002400250026103A28BF78C1FBD8B0
:10018000520728BF30C148BF0B6070476E2900F08E
:100190006781702900F09D82662907F0FC8265293D
:1001A00007F0F982672907F0F682612907F0F582E6
:1001B00003681B0A28BF41F08001692900F01481FF
:1001C000642900F01181752900F00E816F2900F07B
:1001D0002B82782900F06982E92900F0C581E429A1
:1001E00000F0C281F52900F0BF81EF2900F02882DC
:1001F000F82900F068820368DB0928BF41F080011C
:10020000632900F08587732900F08A87E32900F0CD
:100210009587F32900F09A87002070471FB500F0FA
:10022000F3FF04000020002106F010FA401C60607B
:100230000020002106F0F4F9E0601FBD10B510BDEC
:1002400000F0B4FF1146FFF7E9FF05F033FA01F0C3
:1002500091F803B4FFF7F2FF03BC01F0D5F80000FA
:100260000948804709480047FEE7FEE7FEE7FEE74A
:10027000FEE7FEE7FEE7FEE7FEE7FEE70448054986
:10028000054A064B70470000314E0008ED0000089B
:10029000580200205808002058040020580400206C
:1002A0000FB4044910B503AA029800F0EDF810BC91
:1002B0005DF814FB800000204FF0000200B51346EB
:1002C00094469646203922BFA0E80C50A0E80C5076
:1002D000B1F12001BFF4F7AF090728BFA0E80C5027
:1002E00048BF0CC05DF804EB890028BF40F8042B20
:1002F00008BF704748BF20F8022B11F0804F18BF8D
:1003000000F8012B704770477047704710B500F038
:10031000AFFA006810BD10B5044600F0A9FA0460F9
:1003200010BD70B5044685690068C10601D5302648
:1003300000E02026C00707D070BDD4E90121304677
:100340009047206A401C20626D1EF6D570BD70B5C6
:10035000044685690078C00707D170BDD4E9012142
:1003600020209047206A401C20626D1EF6D570BD8B
:1003700009684A0501D540B27047C905FCD500B2ED
:10038000704709684A0501D5C0B27047C905FCD558
:1003900080B2704770B50C460546012A05D0287812
:1003A000800600D5EA69002302E0012305E05B1C1A
:1003B000934202D2E05C0028F9D1A869E618C01A7D
:1003C000A861286A184428622846FFF7AAFF04E0BB
:1003D000D5E9012114F8010B9047B442F8D328461F
:1003E000FFF7B5FF70BD00002DE9F041064600247F
:1003F00010687529314616A510D0FFF7B9FF0028FF
:1004000002DA404213A507E031688A0701D512A538
:1004100002E0490704D511A5012401E0FFF7B1FF6F
:1004200000210A2206F1240709E0B0FBF2FCB0FB30
:10043000F2F302FB1C00303078541846491C0028A7
:10044000F3D123462A463046BDE8F04100F059BAC0
:10045000000000002D0000002B0000002000000024
:1004600011680268006A530501D508700AE0D305D7
:1004700001D5088006E0130603D5C217C1E90002C2
:1004800000E0086001207047074B70B50D467B44C3
:1004900000F021FE0446284600F05CFE10B14FF04B
:1004A000FF3070BD204670BDFF5100002DE9FF5F99
:1004B00015468A460446DFF8AC80F8440027D8E9A0
:1004C00000103E46CDE9001010E03AF816106A46DA
:1004D00002A800F043FE411C07D02178890603D50D
:1004E000E269391891420DD80744761C20788006BD
:1004F00002D5E069B84205DDAE42E6DB3AF8160007
:100500000028E2D1A069C01BA0612046FFF709FFC7
:10051000D8E90010CDE90010002017E03AF81810D3
:100520006A4602A800F01AFEB0F1FF3F81460BD0E8
:1005300000250DF1080B05E0D4E901211BF80500A9
:1005400090476D1C4D45F7D308F10100B04280463D
:10055000E4DB206A384420622046FFF7F8FEBDE85D
:10056000FF9F0000C27300002DE9F0418046D21DBC
:1005700022F007020025D2E90002F52915A614D0C1
:10058000011E72F1000106DA0023D0EB030063EBD9
:10059000020211A608E0D8F800108B0701D50FA6BB
:1005A00002E0490701D50EA601251146002408F1F5
:1005B000240704E000F060F930323A55641C50EA38
:1005C0000102F7D12B46324621464046BDE8F041B4
:1005D00000F097B9000000002D0000002B00000083
:1005E0002000000030B4002100F1240408E002F0F3
:1005F0000705D208303542EA4372DB086554491CCE
:1006000052EA0305F3D10468002310A2250708D598
:1006100004F020040C4304D0C46901230CA2641E1E
:10062000C46130BC00F06DB910B5044621461068B5
:10063000FFF7A7FE02462046BDE810400023D1E7A1
:10064000D21D22F00701D1E90023CBE70000000012
:1006500030000000F0B40D460188090502D5214C98
:100660007C4402E01F4C7C440E34002100F124063F
:1006700008E002F00F071209E75D42EA03721B0966
:100680007754491C52EA0307F3D10278002312077A
:1006900004D5702D06D009B1022311342246F0BCD6
:1006A00000F02FB901231034F8E770B504460D4669
:1006B00021461068FFF765FE024629462046BDE840
:1006C00070400023C6E7D21D22F00703D3E90023C0
:1006D000C0E70368126843F0200303600823C36186
:1006E0000023B7E7247200002DE9F05F8946044635
:1006F0004FF0000ADFF874B1FB44C0F820A0204698
:10070000E1688847002874D0252806D0D4E9012163
:100710009047206A401C2062F1E700265F46204691
:10072000E16888472028054607DB312D05D2781976
:1007300010F8200C08B10643F1E7B00701D526F008
:100740000406C4F81CA00027C4F818A02A2D09D05C
:10075000284605F0F5FD38B304EB8708303DC8F8AE
:10076000185019E059F8041B204604EB87029161E8
:10077000E1688847012F054618D1E069002820DA92
:1007800026F020061DE0D8F8180000EB800005EBED
:1007900040003038C8F818002046E1688847054610
:1007A00005F0CEFD0028EED1012F0AD02E2D08D164
:1007B0002046E16888477F1C0546022F46F0200648
:1007C000C4DBA069002803DA404246F00106A061BC
:1007D000F00701D026F010066C2D0BD0682D09D043
:1007E0004C2D39D06A2D35D0742D35D07A2D33D09B
:1007F00016E038E0E1682F4620468847B8420546B3
:1008000009D16C2F26D04FF48060E1680643204662
:100810008847054604E06C2F1AD04FF480700643D9
:100820000DB3A5F14100192802D8203546F4006621
:100830004A462946204626604E46FFF7A7FC80B16F
:1008400001280BD0F61D26F0070000F1080956E735
:100850004020E4E78020D8E70020D6E706F104092D
:100860004DE7284652E7206ABDE8F09FB4710000CA
:10087000004870472000002030B5B0F10A0271F145
:1008800000034FEA900E4EEA817EB0EB0E0061EB62
:1008900091014FEA101E4EEA017E10EB0E0041EB73
:1008A00011114FEA102E4EEA016E10EB0E0041EBD3
:1008B00011214FEA104E4EEA014E10EB0E0041EBB3
:1008C0001141401841F100014FEAD00040EA417067
:1008D0004FEAD1014FEA810444EA907410EB80059D
:1008E00044EB01046D1944EB0404521BA3414FF087
:1008F000000348BF0A3200D530BD401C41F1000161
:1009000030BD2DE9F0470D4699469246044600F168
:1009100024080168880604D5E06921F010012160EF
:1009200000E00120A84201DD471B00E00027A1698B
:100930007A1902EB0900081AA0612078C00602D4D7
:100940002046FFF7EEFC002608E0D4E901211AF862
:1009500006009047206A401C761C20624E45F4DB5E
:100960002078C0060AD52046FFF7DBFC06E0D4E974
:10097000012130209047206A401C2062381EA7F1D8
:100980000107F4DC07E0D4E9012118F805009047DD
:10099000206A401C2062281EA5F10105F3DC2046D8
:1009A000FFF7D5FC2078000602D50220BDE8F087CD
:1009B0000120FBE72DE9FF4F0C461E464FF0FF37A5
:1009C0008BB0D2E90001DDF860800A908A46C1F35D
:1009D0000A5505B93D46002108464FF00000BAF11E
:1009E000000F00F4400005DA00EB80004FF44001F6
:1009F00001EA50004FEA9059B9F1010F00DDB94604
:100A00000A9850EA4A000ED044F61050A5F2FF357D
:100A100045432F14B8F1000F1ED07542291E1EDD6C
:100A2000C9F100021CE0B8F1010F4FF0000001D045
:100A3000302103E0F24305E02154401CB042FBDBCF
:100A400030460022002121540B99C1F80880C1E9E9
:100A500000200FB0BDE8F08FBD1B6D1CDEE74A46DD
:100A600000DA694206A800F013FC06AB93E8070021
:100A700003AB83E8070050460A9905F06BF88DE850
:100A80000700A0F500501F3800900398002D0ADDE4
:100A900042F21F014A460844002303A90390684616
:100AA00005F0D4FA09E0A0F500504A461F380023AB
:100AB00003A90390684605F0DEFA8DE807000004FC
:100AC000000C03D04FF0FF30410800E01046B8F1B1
:100AD000000F03D00022009215461EE0751E05D4BB
:100AE000FFF7CAFE303262556D1EF9D5B3460122BA
:100AF000084302D000227F1C04E02078302801D176
:100B000000227F1E002A099784D01DE0112D07DAEC
:100B1000FFF7B2FE303262556D1C50EA0102F5D18A
:100B2000084302D00098C8B10EE00021681E05E01D
:100B3000235C625C63542254401E491C8142F7DBF3
:100B4000AB46A81B401E0990002004F80B000B9830
:100B5000099AC0F80880C0E9002B7AE711264FF007
:100B6000000857E72DE9F04F88460446D21D22F0D1
:100B7000070191B0D1E90001CDE90A0105F0B2FB0E
:100B800002460B98C00F01D02D2007E02068810796
:100B900001D52B2002E0202101EAC000032A0990A0
:100BA00001D0072A05DB03464146204600F030FB12
:100BB0000BE12078800601D5E06900E00620B8F15D
:100BC000650F814606D0B8F1660F18D0B8F1670FEF
:100BD00070D131E00020B9F1110F009001DB112339
:100BE00001E009F101030AAA01A90CA8FFF7E2FE3E
:100BF000DDE90C70002609F10105834647E001207C
:100C00004B4600904FF000470AAA01A90CA8FFF735
:100C1000D1FEDDE90DB00C995D46002610B909F151
:100C200001000D18B9EB050003D4C0F1FF3609F13E
:100C30000105A5EB09002BE0B9F1010F01DA4FF036
:100C400001090020B9F1110F0090484601DD112380
:100C500000E003460AAA01A90CA8FFF7ABFEDDE9F4
:100C60000C704D4600268346207800070AD4AB4519
:100C700000DA5D4601A8012D04DD411911F8011CBF
:100C8000302907D04F4502DA17F1040F04DA0120AA
:100C900082460FE06D1EEEE7002F02DCED1B3E44A6
:100CA00003E0781CA84200DD7D1CB81B00F1010A9E
:100CB0004FF000472078000703D4AA4501DB4FF02E
:100CC000FF3A0021B7F1004F0DF143088DF84310B2
:100CD00024D002202B23002F01DA7F422D230A216A
:100CE000021EA0F1010000DC5FB197FBF1FC97FB55
:100CF000F1F201FB1C7C17460CF1300C08F801CD19
:100D0000EEE7A8F1010003702188090501D545210E
:100D100000E06521A0F1010800F8011C09980FA965
:100D2000A1EB0807FF1D00B10120411901EBEA709A
:100D3000A1693844081A401EA0612078C00602D478
:100D40002046FFF7EEFA099828B1D4E9012190472F
:100D5000206A401C20622078C00622D52046FFF77A
:100D6000E0FA1EE0002E04DBB34502DD01A8805D41
:100D700000E03020D4E901219047206A401C206225
:100D8000761CAAF101005FEA000A0AD100F03CFAE1
:100D9000C0680168405CD4E901219047206A401C8A
:100DA0002062281EA5F10105DCDC07E0D4E9012161
:100DB00018F8010B9047206A401C2062381EA7F1EA
:100DC0000107F3DC2046FFF7C2FA032011B041E629
:100DD0002DE9F04F04460D46D21D22F0070089B0E0
:100DE000D0E900974846394605F07CFA0246F80FEC
:100DF00001D02D2307E02068810701D52B2302E0D5
:100E0000202101EAC0038DF820300BB1012000E061
:100E10000020032A824601D0072A04DB2946204607
:100E200000F0F6F93FE12078800601D40D2500E0BE
:100E3000E569C7F30A560D2D49DA00214FEA175B21
:100E400008464FF00000002F00F4400007DA00EBE6
:100E500080004FF4400100EBD07001EA6000811582
:100E6000012901DD4FF0FF3100224FEA850CBCF172
:100E7000180F06D31346ACF118004FF08052C24051
:100E800003E04FF4801323FA0CF30CF10C0CBCF1CB
:100E9000200F04D3ACF1200C09FA0CF001E007FAA2
:100EA0000CF000294FF0004801DD18B90FE00ED119
:100EB00040450CD319EB02095F4121B9404502D1ED
:100EC0009F4329EA0209BBEB175F00D0761C2088FC
:100ED000000502D57B48784402E07A487844193806
:100EE00008AA302302F80A30037C0AF10101002E1F
:100EF0000AF1020A53546A4602DC4FF0300101E065
:100F00004FF031014FF001088DF8001002D0A6F229
:100F1000FF3603E059EA470100D06B4E002D02DC9A
:100F20002178090704D54FF002082E218DF8011011
:100F3000C44600210BE0C7F303433F01C35C491CD7
:100F40006D1E02F80830052908F1010801DA002DAC
:100F5000F1DC00210CE000EB1973491C1B786D1EBD
:100F6000082902F808304FEA091908F1010801DAE6
:100F7000002DF0DC21688B0602D516E0A8F10108EF
:100F8000E04505DD02EB080313F8013C302BF5D0FA
:100F9000B8F1000F09DD02EB080313F8013C2E2B1A
:100FA00003D1090701D4A8F10108002D05DD3E2178
:100FB00002F808106D1E08F10108407C002E02F8AE
:100FC000080008F1010804DA2D20764202F8080032
:100FD00002E02B2002F808000A214FF47A708642C2
:100FE00008F101080BDB96FBF0F3303302F8083010
:100FF00096FBF0F308F1010800FB136601E0642E94
:101000000CDB642096FBF0F3303302F8083096FBDB
:10101000F0F308F1010800FB136601E00A2E06DB7D
:1010200096FBF1F0303002F8080008F1010896FB59
:10103000F1F001FB1060303002F80800A16908F1FE
:10104000010808EB050202EB0A00081AA0612078EB
:10105000C00602D42046FFF764F9216A08AE01EB0E
:101060000A00206204E0D4E9012116F8010B904740
:10107000BAF1010AF7D22078C00602D52046FFF760
:1010800050F96E4609E016F8010B3E280FD0D4E95E
:1010900001219047206A401C2062B8F10108F2D279
:1010A0002046FFF754F909B00320BDE8F08F206A0D
:1010B0002844206203E0D4E90121302090476D1ECE
:1010C000EBD3F8E7FA69000002FCFFFF01694A1C54
:1010D00002610878704700B58FB0CDE90131002179
:1010E000059105497944CDE9031011466846FFF79B
:1010F000FBFA0FB000BD0000E5FFFFFF10B543692C
:1011000013B1AFF3008001E0FFF744F9012010BDF7
:10111000127800F124010A7000224A700122EDE7E2
:1011200011684FF0FF32E9E710B5436913B1AFF32F
:10113000008001E0FFF7BAF9012010BD128800F12C
:10114000240182840022C2840122EDE711684FF05D
:10115000FF32E9E7007B00F0800070472DE9F041A5
:1011600016460C46054600F047F8036893F801015F
:10117000012807D0FF2C12D8185D80B101202C70F7
:10118000BDE8F081D3F807013246214603F2071388
:10119000C7182846BC46BDE8F041002360474FF021
:1011A000FF30EDE700487047200000207546FFF74C
:1011B000F9FFAE4605006946534620F00700854614
:1011C00018B020B5FFF75AF8BDE820404FF00006F0
:1011D0004FF000074FF000084FF0000BAC46ACE8B2
:1011E000C009ACE8C009ACE8C009ACE8C00921F00E
:1011F00007018D467047000010B500F005F8001D8E
:1012000010BD00BF49540000004870474000002056
:101210002DE9F0411F46044603260168072A01F420
:10122000006004DB08B116A505E016A503E008B1CF
:1012300015A500E015A521F010002060A069C01ED2
:10124000A0610FB1401EA0612046FFF76AF84FB1C0
:10125000D4E9012138469047206A401C2062C01C16
:10126000206206E0206AFAE7D4E9012115F8010BB3
:101270009047761EF8D22046FFF769F8BDE8F08166
:101280004E414E006E616E00494E4600696E66002A
:101290002DE9F047814616468AB0354878440DC896
:1012A0008DE80D0032487844801C03AC0DC884E8FA
:1012B0000D0041F69B300844372190FBF1F290FB82
:1012C000F1F5A5F1800501FB12041B3C02D5644237
:1012D000012000E00020DFF898A080460027FA44B3
:1012E000AAF1BE0A0EE0E0070AD03246684607EBD4
:1012F000470101230AEB810104F0BDFE8DE80700E0
:1013000064107F1C002CEED1194F7F44AE3F19E0D2
:10131000E80715D007EB04100DF1180A90E80E004D
:101320008AE80E00C068F04201D198190890324650
:10133000012306A903A804F09EFE03AB83E807007F
:101340006D10641C002DE3D14FF001033246694655
:10135000B8F1000F03A802D004F078FE01E004F019
:101360008AFEC9E90001C9F808200AB0BDE8F08783
:10137000C466000010B50446AFF300802046BDE807
:101380001040FEF766BF00004FF0013C50F8042B00
:1013900051F8043B9A4221D1A2EB0C03934313EA88
:1013A000CC1317D150F8042B51F8043B9A4215D1B5
:1013B000A2EB0C03934313EACC130BD150F8042B8C
:1013C00051F8043B9A4209D1A2EB0C03934313EA70
:1013D000CC13DBD04FF00000704700BFD01A01BA29
:1013E000B1FA81F101F0180122FA01F0CB40DBB231
:1013F000C0B2C01AC1F120012CFA01F3D11A9143F5
:1014000011EAC311E6D1704701491820ABBEFEE7CF
:10141000260002007047000082B0ADF80400ADF86D
:101420000210ADF80020BDF90000BDF90410BDF9AF
:1014300002201144884208DDFFE7BDF80400BDF832
:1014400002100844ADF8060016E0BDF90000BDF931
:101450000410BDF90220891A884208DAFFE7BDF8B6
:101460000400BDF80210401AADF8060004E0BDF813
:101470000000ADF80600FFE7BDF9060002B07047B6
:10148000FFE7FEE77047000081B0EFF3108072B60F
:101490000090FFE7FEE7000080B584B0039000F005
:1014A000C5F90290039801900198013048B1FFE717
:1014B00040F21400C2F20000017801980844019043
:1014C000FFE7FFE700F0B2F90299401A019988425C
:1014D00001D2FFE7F6E704B080BD000090B00F90A6
:1014E0000E9100200D900990FFE70E9800680D996D
:1014F000C840002800F07F81FFE70D990120884057
:101500000C900E9800680C9908400B900B980C9961
:10151000884240F06C81FFE70E98406805900028F3
:1015200051D0FFE7059801283AD0FFE70598022837
:101530003FD0FFE7059803285FD0FFE70598112803
:1015400032D0FFE70598122838D0FFE70598002130
:10155000C1F21101884236D0FFE705980021C1F29F
:10156000120188422FD0FFE705980021C1F2210126
:10157000884228D0FFE705980021C1F22201884265
:1015800021D0FFE705980021C1F2310188421AD02D
:10159000FFE705980021C1F23201884213D02FE005
:1015A0000E98C06809902CE00E98C068043009902D
:1015B00027E00E98C0680830099022E00E98C068B5
:1015C0000C3009901DE00E98806818B9FFE70420E0
:1015D000099011E00E988068012806D1FFE70820E5
:1015E00009900C980F99086105E0082009900C9863
:1015F0000F994861FFE7FFE703E00020099000E052
:10160000FFE70B98FF2803D8FFE70F98049003E04B
:101610000F9804300490FFE7049808900B98FF2877
:1016200004D8FFE70D988000039006E00D996FF055
:101630001F0000EB81000390FFE7039807900898D4
:101640000068079A0F219140884309999140084307
:10165000089908600E98C079C006002840F1C6803D
:10166000FFE7FFE741F21800C4F20200016841F011
:1016700001010160006800F0010006900698FFE794
:101680000D9820F003000821C4F2010140580A908F
:101690000D9800F0030081000F2000FA01F10A9874
:1016A00088430A900F9840F60001C4F20101884275
:1016B00003D1FFE70020029026E00F9840F600419A
:1016C000C4F20101884203D1FFE70120019018E034
:1016D0000F9841F20001C4F20101884203D1FFE7F3
:1016E000022000900AE00F9941F20042C4F2010288
:1016F0000420914208BF03200090FFE7009801906A
:10170000FFE701980290FFE702980D9901F00301AD
:10171000890000FA01F10A9808430A900A980D9985
:1017200021F003010822C4F2010288500E9880794A
:10173000C006002809D5FFE70B9A40F20841C4F221
:10174000010108681043086008E00B9A40F2084164
:10175000C4F20101086890430860FFE70E988079A1
:101760008006002809D5FFE70B9A40F20C41C4F22D
:10177000010108681043086008E00B9A40F20C4130
:10178000C4F20101086890430860FFE70E98807971
:101790008007002809D5FFE70B9A40F20441C4F204
:1017A000010108681043086008E00B9A40F2044108
:1017B000C4F20101086890430860FFE70E98807941
:1017C000C00748B1FFE70B9A40F20041C4F20101A3
:1017D00008681043086008E00B9A40F20041C4F228
:1017E0000101086890430860FFE7FFE7FFE70D98F5
:1017F00001300D9079E610B07047000082B0019082
:10180000ADF802108DF801209DF8010028B1FFE726
:10181000BDF802000199086105E0BDF8020000046E
:1018200001990861FFE702B07047000040F25020C4
:10183000C2F200000068704780B58EB00C900C9822
:1018400020B9FFE701208DF8370043E10C9890F8AC
:101850003D0040B9FFE70C99002081F83C000C984E
:1018600000F0B4FCFFE70C99242081F83D000C98AF
:101870000168086820F0010008600C980168086899
:1018800040F4004008600C980168086820F40040AB
:10189000086000F0C7FE0A900C98406848F2A0610A
:1018A000C0F2010188420BD8FFE70A9948F2804252
:1018B000C0F21E020020914238BF012009900AE0C8
:1018C0000A9940F60012C0F23D020020914238BF52
:1018D00001200990FFE70998012804D1FFE70120C2
:1018E0008DF83700F6E00A984DF68361C4F21B319B
:1018F000A0FB0110800C0B900C980068406820F051
:101900003F000B9908430C99096848600C980068DF
:10191000006A20F03F0008900C98406848F2A061EF
:10192000C0F20101884204D8FFE70B98013007900C
:101930000EE00B984FF49671484344F6D351C1F230
:101940006201A0FB0101012000EB91100790FFE76D
:101950000898079908430C99096808620C98006870
:10196000C0694CF6FF71884306900C98406848F2B5
:10197000A061C0F2010188421FD8FFE70A98013830
:101980000C9949684900B0FBF1F001306FF31F304A
:10199000032803D8FFE7042005900BE00A980138DC
:1019A0000C9949684900B0FBF1F001306FF31F302A
:1019B0000590FFE7059804904CE00C98806868B9A2
:1019C000FFE70A9801380C99496801EB4101B0FB27
:1019D000F1F001306FF31F3003900DE00A980138E9
:1019E0000C99496819225143B0FBF1F001300421F0
:1019F00061F31F300390FFE70398000518B9FFE774
:101A00000120029023E00C98806868B9FFE70A98EB
:101A100001380C99496801EB4101B0FBF1F001304C
:101A20006FF31F3001900DE00A9801380C99496856
:101A300019225143B0FBF1F00130042161F31F3052
:101A40000190FFE7019840F400400290FFE7029800
:101A50000490FFE70698049908430C990968C86147
:101A60000C980068006820F0C0000C9B1968DA69C7
:101A70001B6A1A43104308600C980068806848F29B
:101A8000FF3188430C9A1168D36812691A431043D6
:101A900088600C980068C06820F0FF000C9B1968F3
:101AA0005A699B691A431043C8600C98016808681A
:101AB00040F0010008600C99002008640C9A202175
:101AC00082F83D100C9908630C9981F83E008DF85E
:101AD0003700FFE79DF837000EB080BD10B590B01D
:101AE000844614981398DDF848E0CDF828C0ADF886
:101AF0002610ADF82420ADF82230ADF820000020EB
:101B00000790FFF793FE06900A9890F83D00202872
:101B100040F04B82FFE70A9806996A46116002215D
:101B2000C0F210010122192302F0B8F920B1FFE739
:101B300002208DF82F003CE2FFE70A9890F83C0065
:101B4000012804D1FFE702208DF82F0031E20A9925
:101B5000012081F83C00FFE7FFE70A980068006871
:101B6000C00738B9FFE70A980168086840F001002B
:101B70000860FFE70A980168086820F400600860C0
:101B80000A99222081F83D000A99402081F83E0000
:101B90000A990020086412980A994862BDF820004A
:101BA0000A9948850A98408D0A9908850A99002063
:101BB000CFF6FF70C8620A98BDF82610BDF8242041
:101BC000BDF82230DDF850C0069CEE46CEF8044049
:101BD000CEF800C001F07CFF20B1FFE701208DF8B6
:101BE0002F00E6E10A98008DA0B9FFE7FFE700208B
:101BF00005900A980068406905900A980068806915
:101C000005900598FFE70A980168086840F400709D
:101C100008605DE00A98008D01281FD1FFE70A984F
:101C20000168086820F480600860EFF3108072B6E5
:101C30000F90FFE7002004900A9800684069049024
:101C40000A980068806904900498FFE70A98016880
:101C5000086840F40070086062B638E00A98008DA9
:101C600002281FD1FFE70A980168086840F4006065
:101C70000860EFF3108072B60E90FFE7002003902B
:101C80000A980068406903900A9800688069039088
:101C90000398FFE70A980168086820F480600860EC
:101CA00062B613E00A980168086840F48060086032
:101CB000FFE7002002900A980068406902900A98A5
:101CC0000068806902900298FFE7FFE7FFE7FFE7FF
:101CD000FFE70A98008D002800F05581FFE70A9879
:101CE000008D032800F20781FFE70A98008D012884
:101CF0001ED1FFE70A981499069A02F0FDF920B167
:101D0000FFE701208DF82F0053E10A980068006971
:101D10000A99496A08700A99486A013048620A9922
:101D2000088D013808850A99488D01384885E1E019
:101D30000A98008D022841D1FFE70A98149B069962
:101D40006A4611600421C0F20101002202F0A6F8E7
:101D500020B1FFE701208DF82F002AE1EFF310807A
:101D600072B60D900A980168086840F40070086027
:101D70000A98006800690A99496A08700A99486ACD
:101D8000013048620A99088D013808850A99488D02
:101D90000138488562B60A98006800690A99496A5C
:101DA00008700A99486A013048620A99088D01381A
:101DB00008850A99488D013848859AE00A98149B4D
:101DC00006996A4611600421C0F20101002202F066
:101DD00065F820B1FFE701208DF82F00E9E00A98AF
:101DE0000168086820F480600860EFF3108072B624
:101DF0000C900A98006800690A99496A08700A9963
:101E0000486A013048620A99088D013808850A99A4
:101E1000488D0138488540F20C00C2F2000000688D
:101E200048F21F51C5F2EB11A0FB0110C00844F6A7
:101E3000D351C1F26201A0FB011080092321484364
:101E40000790FFE70798013807900798D0B9FFE798
:101E50000A99002008630A9A202182F83D100A9905
:101E600081F83E000A99086C40F02000086462B6D0
:101E7000FFE70A99002081F83C00FFE701208DF878
:101E80002F0096E0FFE70A980068406900F004011F
:101E90000020B0EB910FD5D0FFE70A9801680868E1
:101EA00040F4007008600A98006800690A99496A5D
:101EB00008700A99486A013048620A99088D013809
:101EC00008850A99488D0138488562B60A980068E5
:101ED00000690A99496A08700A99486A013048629B
:101EE0000A99088D013808850A99488D0138488576
:101EF000FFE7FFE746E00A981499069A02F0FCF81B
:101F000020B1FFE701208DF82F0052E00A98006809
:101F100000690A99496A08700A99486A013048625A
:101F20000A99088D013808850A99488D0138488535
:101F30000A980068406900F004010120B0EB910F9D
:101F40001FD1FFE70A98008D032807D1FFE70A9801
:101F50000168086820F480600860FFE70A9800685C
:101F600000690A99496A08700A99486A013048620A
:101F70000A99088D013808850A99488D01384885E5
:101F8000FFE7FFE7A5E60A99202081F83D000A99BE
:101F9000002081F83E00FFE70A99002081F83C000C
:101FA000FFE700208DF82F0003E002208DF82F00BE
:101FB000FFE79DF82F0010B010BD000010B588B0ED
:101FC00084460C980B98DDF828E0CDF818C0ADF8E1
:101FD0001610ADF81420ADF81230ADF81000FFF770
:101FE00025FC0390069890F83D00202840F0E680FC
:101FF000FFE7069803996A4611600221C0F21001BA
:102000000122192301F04AFF20B1FFE702208DF8D9
:102010001F00D7E0FFE7069890F83C00012804D1A4
:10202000FFE702208DF81F00CCE00699012081F81F
:102030003C00FFE7FFE7069800680068C00738B972
:10204000FFE706980168086840F001000860FFE7B4
:1020500006980168086820F400600860069921204D
:1020600081F83D000699402081F83E000699002045
:1020700008640A9806994862BDF8100006994885D8
:102080000698408D0699088506990020CFF6FF70C6
:10209000C8620698BDF81610BDF81420BDF81230BD
:1020A000DDF830C0039CEE46CEF80440CEF800C008
:1020B00001F000FE20B1FFE701208DF81F0081E054
:1020C000FFE70698008D002849D0FFE706980C9995
:1020D000039A02F07FF880B1FFE70698006C0428AD
:1020E00007D1FFE706980168086840F400700860AF
:1020F000FFE701208DF81F0064E006980168406A40
:10210000007808610699486A013048620699088D8E
:10211000013808850699488D013848850698006879
:10212000406900F004010120B0EB910F16D1FFE7E8
:102130000698008D90B1FFE706980168406A007824
:1021400008610699486A013048620699088D01388D
:1021500008850699488D01384885FFE7B1E706985C
:102160000C99039A01F044FE80B1FFE70698006CD9
:10217000042807D1FFE706980168086840F400705A
:102180000860FFE701208DF81F001BE0069801683A
:10219000086840F4007008600699202081F83D002E
:1021A0000699002081F83E00FFE70699002081F89B
:1021B0003C00FFE700208DF81F0003E002208DF8AF
:1021C0001F00FFE79DF81F0008B010BD80B588B064
:1021D00007900020069005900490039007980068EF
:1021E00045F20041C4F2000188422CD1FFE7FFE72D
:1021F00041F21800C4F20200016841F008010160D8
:10220000006800F0080002900298FFE7C0200390E9
:10221000122004900320069040F60040C4F2010012
:1022200003A9FFF75BF9FFE741F21C00C4F20200CB
:10223000016841F400110160006800F40010019091
:102240000198FFE7FFE708B080BD000040F21400EE
:10225000C2F20000027840F25021C2F20001086888
:10226000104408607047000080B582B042F200015F
:10227000C4F20201086840F010000860032000F07A
:1022800097F80020019000F005F800F03BF8019865
:1022900002B080BD80B582B0009040F20C00C2F266
:1022A0000000006840F21401C2F200010A784FF405
:1022B0007A71B1FBF2F1B0FBF1F000F073FD20B1E7
:1022C000FFE701208DF8070018E000980F280DD8CF
:1022D000FFE700994FF0FF30002200F04FF8009820
:1022E00040F21801C2F20001086003E001208DF8FD
:1022F000070003E000208DF80700FFE79DF80700C6
:1023000002B080BD83B0FFE741F21800C4F20200C2
:10231000016841F001010160006800F001000290D5
:102320000298FFE7FFE741F21C00C4F202000168D7
:1023300041F080510160006800F0805001900198E8
:10234000FFE7FFE70421C4F201010868009000984C
:1023500020F0E0600090009840F00070009000983D
:102360000860FFE703B0704780B582B08DF80700C2
:102370009DF9070003F02CF902B080BD80B586B04E
:102380008DF81700049103920020029003F038F9B1
:1023900002909DF91700019002980499039A02F0A7
:1023A0008BFC0146019803F033F906B080BD0000B4
:1023B00080B582B00190019803F04CF902B080BD65
:1023C00080B584B002900191029820B9FFE7012006
:1023D0008DF80F001BE1019842F20001C4F20201E6
:1023E000096801F00701884216D9FFE742F20000B0
:1023F000C4F20200016821F00701019A1143016053
:10240000006800F007000199884204D0FFE701202E
:102410008DF80F00FBE0FFE70298007880070028A6
:102420002AD5FFE7029800784007002809D5FFE782
:1024300041F20401C4F20201086840F4E06008605F
:10244000FFE7029800780007002809D5FFE741F26E
:102450000401C4F20201086840F460500860FFE71C
:1024600041F20401C4F20201086820F0F000029A6F
:10247000926810430860FFE702980078C0070028C0
:1024800060D0FFE70298406801280ED1FFE741F2D3
:102490000000C4F2020000688003002804D4FFE7B3
:1024A00001208DF80F00B2E021E002984068022878
:1024B0000ED1FFE741F20000C4F202000068800183
:1024C000002804D4FFE701208DF80F009FE00DE005
:1024D00041F20000C4F2020000688007002804D422
:1024E000FFE701208DF80F0091E0FFE7FFE741F2E1
:1024F0000401C4F20201086820F00300029A526845
:1025000010430860FFF792F90090FFE741F20400E2
:10251000C4F20200006800F00C0002994968B0EBB8
:10252000810F0ED0FFE7FFF781F90099401A41F2C1
:102530008931884204D3FFE703208DF80F0066E05D
:10254000E4E7FFE7019842F20001C4F202010968E2
:1025500001F00701884216D2FFE742F20000C4F200
:102560000200016821F00701019A1143016000682F
:1025700000F007000199884204D0FFE701208DF8A0
:102580000F0044E0FFE702980078400700280CD5D0
:10259000FFE741F20401C4F20201086820F4E060A0
:1025A000029AD26810430860FFE70298007800079B
:1025B00000280DD5FFE741F20401C4F202010868CA
:1025C00020F46050029A126940EAC2000860FFE7F6
:1025D00000F04CF841F20401C4F202010968C9B2EA
:1025E0000A0947F67C11C0F60001895CC84040F238
:1025F0000C01C2F20001086040F21800C2F20000B3
:102600000068FFF747FE00208DF80F00FFE79DF8F8
:102610000F0004B080BD000040F20C00C2F20000C8
:102620000068704780B5FFF7F7FF41F20401C4F27C
:1026300002010968C1F3022247F68C11C0F60001BD
:10264000895CC84080BD000080B5FFF7E5FF41F21E
:102650000401C4F202010968C1F3C22247F68C11D9
:10266000C0F60001895CC84080BD000086B0002033
:102670000590049003900290019041F20400C4F28E
:10268000020000680590059800F00C0001460091DA
:1026900000283FD0FFE70098042804D0FFE7009807
:1026A000082806D037E041F20020C0F27A000190FD
:1026B00037E00598C0F3834147F69410C0F6000058
:1026C000405C02909DF81600C007C0B1FFE741F2E0
:1026D0000400C4F202000068C0F3404147F6A410B1
:1026E000C0F60000405C0490029841F20021C0F264
:1026F0007A0148430499B0FBF1F0039007E0029897
:1027000040F60011C0F23D0148430390FFE70398F3
:10271000019006E0FFE741F20020C0F27A0001904C
:10272000FFE7019806B0704780B586B00490049822
:1027300020B9FFE701208DF817002EE304980078F8
:10274000C007002800F0AE80FFE741F20400C4F2A9
:102750000200006800F00C00042813D0FFE741F2EB
:102760000400C4F20200006800F00C0008281BD12D
:10277000FFE741F20400C4F202000068C003002831
:1027800012D5FFE741F20000C4F2020000688003A6
:10279000002808D5FFE70498406820B9FFE701202A
:1027A0008DF81700F9E27CE0FFE704984068B0F587
:1027B000803F09D1FFE741F20001C4F2020108683D
:1027C00040F48030086032E00498406868B9FFE760
:1027D00041F20001C4F20201086820F48030086070
:1027E000086820F48020086020E004984068B0F574
:1027F000A02F0DD1FFE741F20001C4F202010868E9
:1028000040F480200860086840F4803008600CE0E4
:1028100041F20001C4F20201086820F4803008602F
:10282000086820F480200860FFE7FFE7FFE7FFE784
:1028300004984068D0B1FFE7FEF7F8FF0390FFE788
:1028400041F20000C4F202000068800300280CD4AA
:10285000FFE7FEF7EBFF0399401A652804D3FFE773
:1028600003208DF8170098E2EAE719E0FEF7DEFF93
:102870000390FFE741F20000C4F202000068800309
:1028800000280CD5FFE7FEF7D1FF0399401A652811
:1028900004D3FFE703208DF817007EE2EAE7FFE7A5
:1028A000FFE7FFE7049800788007002840F18D805B
:1028B000FFE741F20400C4F20200006810F00C0FC0
:1028C00013D0FFE741F20400C4F20200006800F0F8
:1028D0000C00082829D1FFE741F20400C4F20200ED
:1028E0000068C003002820D4FFE741F20000C4F2D2
:1028F000020000688007002809D5FFE704980069F6
:10290000012804D0FFE701208DF8170045E241F2CD
:102910000001C4F20201086820F0F800049A52692C
:1029200040EAC2000860FFE74EE00498006958B32F
:10293000FFE70021C4F2422101200860FEF776FF84
:102940000390FFE741F20000C4F202000068800734
:1029500000280CD4FFE7FEF769FF0399401A03280B
:1029600004D3FFE703208DF8170016E2EAE741F2EF
:102970000001C4F20201086820F0F800049A5269CC
:1029800040EAC20008601EE00021C4F2422100209B
:102990000860FEF74BFF0390FFE741F20000C4F22E
:1029A00002000068800700280CD5FFE7FEF73EFF15
:1029B0000399401A032804D3FFE703208DF817007A
:1029C000EBE1EAE7FFE7FFE7FFE70498007800079D
:1029D000002848D5FFE70498806918B3FFE740F264
:1029E0008041C4F2422101200860FEF71FFF0390DE
:1029F000FFE741F22400C4F20200006880070028CB
:102A00000CD4FFE7FEF712FF0399401A032804D302
:102A1000FFE703208DF81700BFE1EAE7012002F08D
:102A200083F91FE040F28041C4F242210020086097
:102A3000FEF7FCFE0390FFE741F22400C4F202001F
:102A40000068800700280CD5FFE7FEF7EFFE03992A
:102A5000401A032804D3FFE703208DF817009CE1F8
:102A6000EAE7FFE7FFE7049800784007002840F115
:102A7000D880FFE700208DF8070041F21C00C4F267
:102A800002000068C000002813D4FFE7FFE741F20E
:102A90001C00C4F20200016841F08051016000682E
:102AA00000F0805000900098FFE701208DF80700AB
:102AB000FFE747F20000C4F200000068C0050028EC
:102AC00022D4FFE747F20001C4F20001086840F495
:102AD00080700860FEF7AAFE0390FFE747F200004F
:102AE000C4F200000068C00500280CD4FFE7FEF720
:102AF0009DFE0399401A652804D3FFE703208DF853
:102B000017004AE1EAE7FFE7FFE70498C0680128F9
:102B100009D1FFE741F22001C4F20201086840F048
:102B20000100086031E00498C06868B9FFE741F22D
:102B30002001C4F20201086820F001000860086862
:102B400020F0040008601FE00498C06805280DD13B
:102B5000FFE741F22001C4F20201086840F00400DE
:102B60000860086840F0010008600CE041F22001B4
:102B7000C4F20201086820F001000860086820F033
:102B800004000860FFE7FFE7FFE7FFE70498C0687D
:102B9000E0B1FFE7FEF74AFE0390FFE741F22000B5
:102BA000C4F202000068800700280ED4FFE7FEF799
:102BB0003DFE0399401A41F28931884204D3FFE770
:102BC00003208DF81700E8E0E8E71BE0FEF72EFE93
:102BD0000390FFE741F22000C4F202000068800782
:102BE00000280ED5FFE7FEF721FE0399401A41F2B7
:102BF0008931884204D3FFE703208DF81700CCE029
:102C0000E8E7FFE79DF80700012809D1FFE741F257
:102C10001C01C4F20201086820F080500860FFE740
:102C2000FFE70498C069002800F0B380FFE741F295
:102C30000400C4F20200006800F00C00082800F054
:102C40008280FFE70498C06902285CD1FFE7602119
:102C5000C4F2422100200860FEF7E8FD0390FFE780
:102C600041F20000C4F202000068800100280CD587
:102C7000FFE7FEF7DBFD0399401A032804D3FFE7C3
:102C800003208DF8170088E0EAE70498006AB0F5A1
:102C9000803F0CD1FFE741F20401C4F20201086851
:102CA00020F40030049A926810430860FFE741F274
:102CB0000401C4F20201086820F47410049B1A6A2B
:102CC0005B6A1A43104308606021C4F2422101206C
:102CD0000860FEF7ABFD0390FFE741F20000C4F28D
:102CE00002000068800100280CD4FFE7FEF79EFD7B
:102CF0000399401A032804D3FFE703208DF8170037
:102D00004BE0EAE71EE06021C4F2422100200860A7
:102D1000FEF78CFD0390FFE741F20000C4F20200D1
:102D20000068800100280CD5FFE7FEF77FFD0399BE
:102D3000401A032804D3FFE703208DF817002CE086
:102D4000EAE7FFE724E00498C069012804D1FFE71F
:102D500001208DF8170020E041F20400C4F20200C7
:102D600000680290029800F480300499096A884251
:102D700008D1FFE7029800F470100499496A88426C
:102D800004D0FFE701208DF8170006E0FFE7FFE71A
:102D9000FFE700208DF81700FFE79DF8170006B049
:102DA00080BD000080B582B00190019801F0DCFF89
:102DB00002B080BD81B0009001B0704781B000903A
:102DC00001B0704785B003900291FFE7039890F837
:102DD0003C00012804D1FFE702208DF813005BE0DE
:102DE0000399012081F83C00FFE7FFE703990220E7
:102DF00081F83D00039800684068019003980068DE
:102E000080680090019820F070000190029801689D
:102E10000198084301900198039909684860039854
:102E2000006842F60041C4F20101884218D0FFE771
:102E300003980068B0F1804F12D0FFE70398006854
:102E400040F20041C4F20001884209D0FFE7039834
:102E5000006840F60001C4F2000188420ED1FFE78D
:102E6000009820F080000090029841680098084384
:102E700000900098039909688860FFE70399012092
:102E800081F83D00FFE70399002081F83C00FFE74F
:102E900000208DF81300FFE79DF8130005B0704780
:102EA00080B582B00090009820B9FFE701208DF82E
:102EB00007003FE0009890F83D0040B9FFE7009917
:102EC000002081F83C00009800F038F8FFE70099F6
:102ED000022081F83D00009951F8040B01F0B2FF87
:102EE0000099012081F84600FFE70099012081F850
:102EF0003E00009981F83F00009981F84000009958
:102F000081F84100FFE7FFE70099012081F84200C6
:102F1000009981F84300009981F84400009981F8F4
:102F20004500FFE70099012081F83D0000208DF861
:102F30000700FFE79DF8070002B080BD80B584B0B0
:102F400003900398006840F20041C4F200018842F7
:102F500010D1FFE7FFE741F21C00C4F20200016854
:102F600041F002010160006800F002000290029846
:102F7000FFE722E00398006840F60001C4F2000178
:102F8000884219D1FFE7FFE741F21C00C4F20200BA
:102F9000016841F004010160006800F00400019044
:102FA0000198FFE71E20009000221146FFF7E6F986
:102FB0000098FFF7D9F9FFE7FFE704B080BD0000F4
:102FC00083B00190019890F83D00012804D0FFE7FC
:102FD00001208DF80B0047E00199022081F83D00A7
:102FE00001980168C86840F00100C8600198006855
:102FF00042F60041C4F20101884218D0FFE701986F
:103000000068B0F1804F12D0FFE70198006840F2ED
:103010000041C4F20001884209D0FFE7019800682E
:1030200040F60001C4F20001884212D1FFE7019886
:103030000068806800F0070000900098062807D01C
:10304000FFE701980168086840F001000860FFE7A9
:1030500006E001980168086840F001000860FFE799
:1030600000208DF80B00FFE79DF80B0003B07047C0
:1030700080B586B00490039100208DF80B00FFE727
:10308000049890F83C00012804D1FFE702208DF855
:103090001700ABE00499012081F83C00FFE7FFE74F
:1030A0000499022081F83D0004980068806801902E
:1030B000019820F077000190019820F47F40019062
:1030C00001980499096888600398006800900028B6
:1030D00072D0FFE7009810286ED0FFE700982028F4
:1030E0006AD0FFE70098302866D0FFE700984028B4
:1030F00055D0FFE70098502837D0FFE700986028A8
:1031000040D0FFE7009870280BD0FFE70098B0F59B
:10311000805F05D0FFE70098B0F5005F16D052E061
:1031200055E004980068039B5A689968DB6801F0D1
:1031300029FF0498006880680190019840F07700AA
:103140000190019804990968886040E0049800683B
:10315000039B5A689968DB6801F014FF04980168C2
:10316000886840F48040886031E004980068039AE1
:103170005168D26802F0C2F804980068502101F04A
:103180001BFF24E004980068039A5168D26802F09B
:10319000DDF804980068602101F00EFF17E0049844
:1031A0000068039A5168D26802F0A8F80498006891
:1031B000402101F001FF0AE00498006803990968C2
:1031C00001F0FAFE03E001208DF80B00FFE70499FF
:1031D000012081F83D00FFE70499002081F83C00C0
:1031E000FFE79DF80B008DF81700FFE79DF817002B
:1031F00006B080BD81B0009001B0704780B584B04A
:10320000039003980068C068029003980068006902
:1032100001909DF804008007002824D5FFE79DF861
:103220000800800700281DD5FFE7039801686FF0AC
:1032300002000861039901200877039800688069FB
:10324000800720B1FFE70398FFF7D4FF06E003985B
:1032500000F012F9039800F007FAFFE70399002045
:103260000877FFE7FFE79DF804004007002825D511
:10327000FFE79DF80800400700281ED5FFE70398E8
:1032800001686FF004000861039902200877039831
:103290000068806910F4407F04D0FFE70398FFF7CF
:1032A000A9FF06E0039800F0E7F8039800F0DCF9C6
:1032B000FFE7039900200877FFE7FFE79DF8040088
:1032C0000007002824D5FFE79DF808000007002824
:1032D0001DD5FFE7039801686FF0080008610399A6
:1032E0000420087703980068C069800720B1FFE7D1
:1032F0000398FFF77FFF06E0039800F0BDF80398FE
:1033000000F0B2F9FFE7039900200877FFE7FFE735
:103310009DF80400C006002825D5FFE79DF80800A9
:10332000C00600281ED5FFE7039801686FF0100063
:10333000086103990820087703980068C06910F4B1
:10334000407F04D0FFE70398FFF754FF06E003989F
:1033500000F092F8039800F087F9FFE70399002046
:103360000877FFE7FFE79DF80400C00778B1FFE7A3
:103370009DF80800C00748B1FFE7039801686FF0A7
:1033800001000861039800F023FAFFE7FFE79DF8CA
:1033900004000006002810D5FFE79DF8080000068D
:1033A000002809D5FFE7039801686FF080000861E5
:1033B0000398FFF7FFFCFFE7FFE79DF804004006D6
:1033C000002810D5FFE79DF808004006002809D521
:1033D000FFE7039801686FF040000861039800F070
:1033E0000BFAFFE7FFE79DF804008006002810D5E0
:1033F000FFE79DF808008006002809D5FFE703983D
:1034000001686FF0200008610398FFF7D7FCFFE721
:10341000FFE704B080BD000080B586B005900020B5
:1034200004900390029001900598006840F20041DA
:10343000C4F2000188421CD1FFE7FFE741F2180007
:10344000C4F20200016841F004010160006800F06C
:10345000040000900098FFE7C02001900220029035
:10346000049040F60000C4F2010001A9FEF736F80E
:10347000FFE706B080BD000081B0009001B070474A
:1034800080B586B004900391029200208DF8070069
:10349000FFE7049890F83C00012804D1FFE70220E0
:1034A0008DF8170089E00499012081F83C00FFE7BE
:1034B000FFE7029800900C2800F270800099DFE886
:1034C00001F0076D6D6D206D6D6D3A6D6D6D530082
:1034D00004980068039901F085FD049801688869E3
:1034E00040F00800886104980168886920F00400B1
:1034F00088610398026904980168886910438861AB
:1035000050E004980068039901F0D4FD0498016824
:10351000886940F40060886104980168886920F433
:10352000806088610398026904980168886940EAAC
:103530000220886136E004980068039901F026FEB5
:1035400004980168C86940F00800C86104980168DF
:10355000C86920F00400C8610398026904980168F2
:10356000C8691043C8611DE004980068039901F020
:1035700079FE04980168C86940F40060C861049845
:103580000168C86920F48060C861039802690498E2
:103590000168C86940EA0220C86103E001208DF893
:1035A0000700FFE7FFE70499002081F83C00FFE7F0
:1035B0009DF807008DF81700FFE79DF8170006B08B
:1035C00080BD000080B582B00090009820B9FFE770
:1035D00001208DF807003FE0009890F83D0040B9C9
:1035E000FFE70099002081F83C00009800F038F8CF
:1035F000FFE70099022081F83D00009951F8040B83
:1036000001F020FC0099012081F84600FFE70099B5
:10361000012081F83E00009981F83F00009981F86F
:103620004000009981F84100FFE7FFE70099012081
:1036300081F84200009981F84300009981F8440024
:10364000009981F84500FFE70099012081F83D00CD
:1036500000208DF80700FFE79DF8070002B080BD4D
:1036600081B0009001B0704781B0009001B0704708
:1036700080B58AB008900791079828B9FFE70898A5
:1036800090F83E0005901CE00798042805D1FFE75C
:10369000089890F83F00049010E00798082805D19A
:1036A000FFE7089890F84000039004E0089890F82D
:1036B00041000390FFE703980490FFE7049805900A
:1036C000FFE70598012804D0FFE701208DF82700C7
:1036D0007AE0079828B9FFE70899022081F83E00B0
:1036E0001EE00798042806D1FFE70899022081F818
:1036F0003F00029012E00798082806D1FFE70899DA
:10370000022081F84000019005E00899022081F82C
:1037100041000190FFE701980290FFE70298FFE760
:10372000089800680799012201F010FC08980068C9
:1037300042F60041C4F20101884207D1FFE7089830
:103740000168486C40F400404864FFE7089800684E
:1037500042F60041C4F20101884218D0FFE7089800
:103760000068B0F1804F12D0FFE70898006840F27F
:103770000041C4F20001884209D0FFE708980068C0
:1037800040F60001C4F20001884212D1FFE7089818
:103790000068806800F0070006900698062807D0A9
:1037A000FFE708980168086840F001000860FFE73B
:1037B00006E008980168086840F001000860FFE72B
:1037C00000208DF82700FFE79DF827000AB080BD94
:1037D00081B000900098006840F60001C4F200013A
:1037E000884207D1FFE740F2D801C2F20001012070
:1037F0000870FFE701B0704781B0009001B07047DA
:1038000080B582B00090009820B9FFE701208DF8C4
:10381000070040E00098806908B1FFE700E0FFE79B
:10382000009890F8410040B9FFE70099002081F826
:103830004000009800F034F8FFE70099242081F858
:10384000410000980168C86820F40050C8600098E2
:1038500001F0F0FD00980168086920F490400861CB
:1038600000980168486920F02A00486100980168C2
:10387000C86840F40050C860009900204864009A6D
:10388000202182F84110009A82F842100099486382
:103890008DF80700FFE79DF8070002B080BD00002B
:1038A00080B58AB009900020089007900690059096
:1038B0000998006843F60001C4F20101884239D139
:1038C000FFE7FFE741F21800C4F20200016841F48B
:1038D00080410160006800F4804004900498FFE794
:1038E000FFE741F21800C4F20200016841F0040150
:1038F0000160006800F0040003900398FFE74FF4B4
:1039000000700590022006900320089040F6000009
:10391000C4F20100019005A90291FDF7DFFD0198B5
:1039200002994FF480620592002206920792FDF7F9
:10393000D5FDFFE70AB080BD80B58AB00890079139
:10394000ADF81A20059300200290089890F84100E5
:10395000202840F08180FFE7079820B1FFE7BDF8FD
:103960001A0020B9FFE701208DF8270078E00899B8
:10397000002048640899212081F84100FDF756FF96
:103980000290BDF81A0008998884BDF81A000899B9
:10399000C88408988068B0F5805F09D1FFE708986F
:1039A000006928B9FFE7002004900798039004E01D
:1039B0000798049000200390FFE7FFE70898C08C69
:1039C00078B3FFE70898029B05996A461160802149
:1039D000002201F08DFD40B1FFE70899202081F819
:1039E000410003208DF827003AE0049858B9FFE71A
:1039F000039800886FF35F2008990968486003986E
:103A00000230039008E0049800780899096848603B
:103A1000049801300490FFE70899C88C0138C884E5
:103A2000CCE70898029B05996A4611604021002264
:103A300001F05EFD40B1FFE70899202081F84100C8
:103A400003208DF827000BE00899202081F8410021
:103A500000208DF8270003E002208DF82700FFE703
:103A60009DF827000AB080BDFFE7FEE782B0009016
:103A700000980068406900F480610120B0EB912F4C
:103A80001ED1FFE7009801686FF4806048610099DB
:103A900000200863009A202182F83D10009981F8E7
:103AA0003E000099086C40F004000864FFE70099AC
:103AB000002081F83C00FFE701208DF8070003E0BB
:103AC00000208DF80700FFE79DF8070002B070475F
:103AD00080B586B0DDF824C0DDF820C00490ADF8D4
:103AE0000E10ADF80C20ADF80A3004980168086893
:103AF00040F48060086004980168086840F48070B1
:103B000008600498089B09996A4611604FF00111FA
:103B1000002200F0C3F980B1FFE704980068006854
:103B2000C005002805D5FFE704994FF4007008642C
:103B3000FFE703208DF81700B7E0BDF80E0000F096
:103B4000FE000499096808610498089A099B0221FB
:103B5000C0F2010100F026FA20B1FFE701208DF844
:103B60001700A2E0FFE70020019004980068406978
:103B7000019004980068806901900198FFE704981B
:103B80000899099A00F026FB80B1FFE70498006CC1
:103B9000042807D1FFE704980168086840F4007022
:103BA0000860FFE701208DF817007EE0BDF80A00ED
:103BB000012806D1FFE79DF80C0004990968086107
:103BC00021E09DF80D00049909680861049808999E
:103BD000099A00F0FFFA80B1FFE70498006C04280E
:103BE00007D1FFE704980168086840F40070086096
:103BF000FFE701208DF8170057E09DF80C000499AD
:103C000009680861FFE704980899099A00F0E2FA48
:103C100080B1FFE70498006C042807D1FFE70498FF
:103C20000168086840F400700860FFE701208DF823
:103C300017003AE004980168086840F48070086052
:103C40000498089B09996A4611604FF001110022FF
:103C500000F024F980B1FFE7049800680068C0050F
:103C6000002805D5FFE704994FF400700864FFE7CA
:103C700003208DF8170018E09DF80E0040F00100B9
:103C80000499096808610498089A099B0221C0F206
:103C9000010100F087F920B1FFE701208DF817003E
:103CA00003E000208DF81700FFE79DF8170006B02D
:103CB00080BD000080B586B0DDF824C0DDF820C0EE
:103CC0000490ADF80E10ADF80C20ADF80A30049851
:103CD0000168086840F4807008600498089B09999E
:103CE0006A4611604FF00111002200F0D7F880B150
:103CF000FFE7049800680068C005002805D5FFE7C5
:103D000004994FF400700864FFE703208DF8170052
:103D100069E0BDF80E0000F0FE0004990968086132
:103D20000498089A099B0221C0F2010100F03AF9B7
:103D300020B1FFE701208DF8170054E0FFE70020D5
:103D400001900498006840690190049800688069B7
:103D500001900198FFE704980899099A00F03AFA4F
:103D600080B1FFE70498006C042807D1FFE70498AE
:103D70000168086840F400700860FFE701208DF8D2
:103D8000170030E0BDF80A00012806D1FFE79DF8D2
:103D90000C0004990968086121E09DF80D00049960
:103DA0000968086104980899099A00F013FA80B12B
:103DB000FFE70498006C042807D1FFE70498016826
:103DC000086840F400700860FFE701208DF81700D4
:103DD00009E09DF80C00049909680861FFE70020DC
:103DE0008DF81700FFE79DF8170006B080BD0000B2
:103DF00080B584B0029001910092FFE702980068BC
:103E0000406900F004010020B0EB910F3ED1FFE7C4
:103E10000298FFF72BFE20B1FFE701208DF80F007D
:103E200038E00198013080B3FFE7FDF7FFFC00990F
:103E3000401A0199884203D8FFE7019820BBFFE7A9
:103E400002980068406900F004010020B0EB910F77
:103E500019D1FFE7029900200863029A202182F815
:103E60003D10029981F83E000299086C40F0200054
:103E70000864FFE70299002081F83C00FFE7012079
:103E80008DF80F0006E0FFE7FFE7B7E700208DF8A9
:103E90000F00FFE79DF80F0004B080BD80B588B02B
:103EA000DDF828C0069005918DF813200393FFE7F5
:103EB0009DF8160001280CD1FFE7069800684069BC
:103EC000BDF814100840401AB0FA80F04009029082
:103ED0000BE0069800688069BDF814100840401A8D
:103EE000B0FA80F040090290FFE702989DF81310A5
:103EF00088424FD1FFE703980130002849D0FFE7FF
:103F0000FDF794FC0A99401A0399884203D8FFE709
:103F10000398E8BBFFE79DF8160001280CD1FFE7E6
:103F2000069800684069BDF814100840401AB0FABD
:103F300080F0400901900BE0069800688069BDF8A8
:103F400014100840401AB0FA80F040090190FFE7D1
:103F500001989DF81310884219D1FFE706990020B7
:103F60000863069A202182F83D10069981F83E00E8
:103F70000699086C40F020000864FFE706990020CD
:103F800081F83C00FFE701208DF81F0006E0FFE705
:103F9000FFE78DE700208DF81F00FFE79DF81F0069
:103FA00008B080BD80B588B0069005910492039357
:103FB000FFE79DF8160001280CD1FFE7069800687E
:103FC0004069BDF814100840401AB0FA80F040096A
:103FD00002900BE0069800688069BDF81410084054
:103FE000401AB0FA80F040090290FFE702980028DA
:103FF0007AD1FFE706980068406900F480610120EB
:10400000B0EB912F24D1FFE706980168086840F4CF
:1040100000700860069801686FF480604861069936
:1040200000200863069A202182F83D10069981F845
:104030003E000699086C40F004000864FFE706990A
:10404000002081F83C00FFE701208DF81F004FE0C1
:1040500004980130002846D0FFE7FDF7E7FB0399FD
:10406000401A0499884203D8FFE70498D0BBFFE7C1
:104070009DF8160001280CD1FFE7069800684069FA
:10408000BDF814100840401AB0FA80F040090190C1
:104090000BE0069800688069BDF814100840401ACB
:1040A000B0FA80F040090190FFE70198C8B9FFE736
:1040B000069900200863069A202182F83D1006998F
:1040C00081F83E000699086C40F020000864FFE784
:1040D0000699002081F83C00FFE701208DF81F00C1
:1040E00006E0FFE7FFE764E700208DF81F00FFE729
:1040F0009DF81F0008B080BD80B584B0029001918A
:104100000092FFE702980068406900F0400100203B
:10411000B0EB911F56D1FFE702980068406900F0AC
:1041200010010120B0EB111F1CD1FFE702980168BC
:104130006FF010004861029900200863029A202164
:1041400082F83D10029981F83E000299086C0864DB
:10415000FFE70299002081F83C00FFE701208DF87D
:104160000F0033E0FDF762FB0099401A0199884285
:1041700003D8FFE7019820BBFFE702980068406979
:1041800000F040010020B0EB911F19D1FFE7029928
:1041900000200863029A202182F83D10029981F8DC
:1041A0003E000299086C40F020000864FFE7029985
:1041B000002081F83C00FFE701208DF80F0005E0AA
:1041C000FFE79FE700208DF80F00FFE79DF80F0045
:1041D00004B080BD80B584B0029001910092FFE7E9
:1041E000029800684069C1B20020B0EBD11F3DD1F8
:1041F000FFE70298FFF73AFC20B1FFE701208DF8B6
:104200000F0037E00198013078B3FFE7FDF70EFBB0
:104210000099401A0199884203D8FFE7019818BB1A
:10422000FFE7029800684069C1B20020B0EBD11FDF
:1042300019D1FFE7029900200863029A202182F831
:104240003D10029981F83E000299086C40F0200070
:104250000864FFE70299002081F83C00FFE7012095
:104260008DF80F0006E0FFE7FFE7B9E700208DF8C3
:104270000F00FFE79DF80F0004B080BD80B586B049
:1042800005900491002003904FF47A7102910190FF
:10429000FFE70198B0F57A7F1BDAFFE705980499EC
:1042A00000F076F90598049940F21002C2F200027B
:1042B000126800F045F80498416A039802F056FE2F
:1042C00003900520FDF7E8F8FFE701980130019021
:1042D000DFE703980021C4F27A4102F00FFF04994E
:1042E000086306B080BD000080B586B005900491DB
:1042F000002003904FF47A7102910190FFE701983A
:10430000B0F57A7F12DAFFE70598049900F040F9DA
:1043100004988169039802F029FE03900520FDF7B7
:10432000BBF8FFE7019801300190E8E7039800210E
:10433000C4F27A4102F0E2FE0499C86206B080BD80
:1043400080B58CB00B900A9109920A98C1680191CE
:10435000016903914169084603F04AF80199029006
:10436000084603F045F8029902F000FE02F042F917
:104370000146039880F0004001F0EAFF42F6E66152
:10438000C4F2652103F034F80A9948620A99089149
:1043900088694A6A0592896A0491099903F028F8A4
:1043A0000146049803F082F90146059806914CF6FF
:1043B000CD41C3F6CC5103F01BF801460698079196
:1043C00046F26661C3F6667103F012F8014607987B
:1043D00002F0CCFD089988620CB080BD80B58CB02D
:1043E0000A900A986A464FF47A71916001235360EB
:1043F0000DF127011160D0217522FDF76FFB9DF8AB
:104400002700702860D1FFE7002003908DF8260078
:104410000A986A464FF47A710691916001230893D5
:1044200053600DF1260104911160D02105916B229A
:10443000FDF7C4FD0A200790FDF72EF8049A0599B0
:10444000089BDDF818E003208DF826000A98EC465A
:10445000CCF808E0CCF80430CCF800201A22FDF7A4
:10446000ADFD0798FDF718F80398049A0599089B85
:10447000DDF818E08DF826000A98EC46CCF808E044
:10448000CCF80430CCF800201C22FDF797FD0798EB
:10449000FDF702F80398049A0599089BDDF818E0E7
:1044A0008DF826000A98EC46CCF808E0CCF80430E9
:1044B000CCF800201B22FDF781FD0798FCF7ECFFEC
:1044C00008988DF82F0003E000208DF82F00FFE7FB
:1044D0009DF82F000CB080BD80B58CB00B900A9178
:1044E0000B986A464FF47A719160062151600DF184
:1044F00022011160D0213B220123FDF7EFFA9DF844
:1045000022109DF8230040EA01200A9908809DF8B6
:1045100024109DF8250040EA01200A9948809DF862
:1045200026109DF8270040EA01200A9988800A9801
:104530000390B0F9000002F01BFB0022059200235B
:10454000C4F2D003069302F07DF902F095F80399C6
:10455000C8600A980490B0F9020002F009FB059ABD
:10456000069B02F06FF902F087F8049908610A9837
:104570000790B0F9040002F0FBFA059A069B02F0DE
:1045800061F902F079F8079948610CB080BD00002C
:1045900080B582B00190009101980099FFF79CFFCF
:1045A0000198009900F002F802B080BD80B58EB08D
:1045B0000D900C910D986A464FF47A719160062126
:1045C00051600DF12A011160D02143220123FDF732
:1045D00085FA9DF82A109DF82B0040EA01200C99DD
:1045E000C8809DF82C109DF82D0040EA01200C9900
:1045F00008819DF82E109DF82F0040EA01200C99AB
:1046000048810C980590B0F9060002F0B1FA00223A
:10461000079246F20003C4F26003089302F012F915
:104620000246059803920491C06A02F073FC0246A8
:1046300003980B46049902F07FFB02F01DF80599E0
:1046400088610C980690B0F9080002F091FA079A78
:10465000089B02F0F7F802F00FF80699C8610C9871
:104660000990B0F90A0002F083FA079A089B02F059
:10467000E9F802F001F8099908620EB080BD000067
:1046800080B590B000200F900E900D900C90FFE739
:1046900041F21800C4F20200016841F0100101600B
:1046A000006800F010000B900B98FFE7FFE741F265
:1046B0001800C4F20200016841F0200101600068A6
:1046C00000F020000A900A98FFE7FFE741F2180087
:1046D000C4F20200016841F004010160006800F0CA
:1046E000040009900998FFE7FFE741F21800C4F2BF
:1046F0000200016841F008010160006800F0080054
:1047000008900898FFE741F20000C4F20100019010
:104710004FF40051009100220392FDF76FF8039AC5
:1047200040F60000C4F2010005900F210791FDF74B
:1047300065F8009A019803990C92012202920D9259
:104740000E91022104910F910CA90691FCF7C6FE6F
:10475000DDF808C0039B049A05980699DDF81CE073
:10476000CDF830E0CDF834C00E930F92FCF7B6FED2
:1047700010B080BD80B582B040F2DC00C2F2000013
:10478000019045F20041C4F20001016048F2A061CD
:10479000C0F20101416000218160C1604FF480429C
:1047A000026141618161C1610162FDF745F818B1A3
:1047B000FFE7FCF769FEFFE702B080BD80B58EB071
:1047C000002100910D910C910B910A910991089192
:1047D000079106910591049103910291019140F294
:1047E0003010C2F2000040F20042C4F20002026047
:1047F00047224260816040F2E732C260016181611C
:10480000FEF74EFB18B1FFE7FCF73EFEFFE74FF463
:1048100080500A9040F23010C2F200000AA9FEF760
:1048200027FC18B1FFE7FCF72FFEFFE740F230103E
:10483000C2F20000FEF7C6FE18B1FFE7FCF724FE47
:10484000FFE700200890099040F23010C2F200000B
:1048500008A9FEF7B7FA18B1FFE7FCF715FEFFE766
:1048600060200190002202920392059240F23010E3
:10487000C2F2000001A9FEF703FE18B1FFE7FCF742
:1048800003FEFFE740F23010C2F2000001A904224B
:10489000FEF7F6FD18B1FFE7FCF7F6FDFFE740F283
:1048A0003010C2F20000FEF7B7FD0EB080BD000070
:1048B00080B588B00021019107910691059104917E
:1048C0000391029140F27810C2F2000040F600021B
:1048D000C4F20002026041F61F424260816063221E
:1048E000C26001618161FEF7DBFA18B1FFE7FCF7F6
:1048F000CBFDFFE74FF48050049040F27810C2F2F5
:10490000000004A9FEF7B4FB18B1FFE7FCF7BCFDFB
:10491000FFE700200290039040F27810C2F20000FE
:1049200002A9FEF74FFA18B1FFE7FCF7ADFDFFE76C
:1049300008B080BD80B582B040F2C010C2F2000065
:10494000019043F60001C4F2010101604FF4E1312E
:10495000416000218160C16001610C22426181617E
:10496000C161FEF74DFF18B1FFE7FCF78DFDFFE7D2
:1049700002B080BD85B0ADF81000ADF80E10ADF8F6
:104980000C20BDF9100020B9FFE70020ADF812009F
:104990003AE0BDF91000012818DBFFE7BDF90E0071
:1049A000BDF91010013940F2E732121A514346F6B0
:1049B0003932C2F2D50281FB0212D11101EBD27160
:1049C000084402900298ADF812001DE0BDF81000F6
:1049D0004042ADF80600BDF90C00BDF906100139E2
:1049E00040F2E732121A514346F63932C2F2D5028A
:1049F00081FB0212D11101EBD271084400900098A2
:104A00004042ADF81200FFE7BDF9120005B0704753
:104A1000FFE7FEE782B0ADF80400ADF80210ADF894
:104A20000020BDF90000BDF90410884205DAFFE757
:104A3000BDF80400ADF8060010E0BDF90000BDF9B6
:104A40000210884205DDFFE7BDF80200ADF8060060
:104A500004E0BDF80000ADF80600FFE7BDF9060070
:104A600002B0704780B582B040F23010C2F2000050
:104A7000009000210191FEF7FBFD00980421FEF754
:104A8000F7FD019840F20C21C2F20001088040F2CB
:104A90004821C2F20001088000F000F902B080BD98
:104AA00080B586B0ADF81600BDF916204FF6194056
:104AB000CFF6FF7040F2E731FFF7ACFF40F20C2079
:104AC000C2F20000B0F90000BDF916201421FCF775
:104AD000A3FCBDF9160040F281114FF4BE72FFF73E
:104AE00049FFADF81600BDF91600012817DBFFE7F6
:104AF00040F60000C4F20100049001221146FCF7C8
:104B00007DFE049802210022FCF778FEBDF9160014
:104B100040F23011C2F200010968486336E0BDF985
:104B20001600B0F1FF3F19DCFFE740F60000C4F2C9
:104B300001000290012103910022FCF75FFE029820
:104B4000039A0221FCF75AFEBDF91600404240F2DA
:104B50003011C2F200010968486316E040F6000017
:104B6000C4F201000090012100220192FCF746FEF0
:104B70000098019A0221FCF741FE019840F23011A1
:104B8000C2F2000109684863FFE7FFE7BDF81600BD
:104B900040F20C21C2F20001088006B080BD000086
:104BA00080B586B0ADF81600BDF916204FF6194055
:104BB000CFF6FF7040F2E731FFF72CFF40F24820BC
:104BC000C2F20000B0F90000BDF916201421FCF774
:104BD00023FCBDF9160040F277121146FFF7CAFE1A
:104BE000ADF81600BDF91600012817DBFFE740F607
:104BF0000000C4F20100049004210022FCF7FEFD35
:104C0000049808210122FCF7F9FDBDF9160040F2D5
:104C10003011C2F200010968886335E0BDF9160061
:104C2000B0F1FF3F18DCFFE740F60000C4F20100DE
:104C3000039004210122FCF7E1FD039808210022E2
:104C4000FCF7DCFDBDF91600404240F23011C2F223
:104C500000010968886316E040F60000C4F2010014
:104C60000190012100220292FCF7C8FD0198029AEE
:104C70000221FCF7C3FD029840F23011C2F200019C
:104C800009688863FFE7FFE7BDF8160040F2482196
:104C9000C2F20001088006B080BD000080B582B07D
:104CA00000200190FFF7FCFE0198FFF779FF02B0AA
:104CB00080BD0000FFE7FEE788B0079006910592EF
:104CC000079800F0070004900498C0F10700052839
:104CD00003D3FFE70420019004E00498C0F107002B
:104CE0000190FFE70198039004980430062803D848
:104CF000FFE70020009003E0049803380090FFE7EE
:104D00000098029006980399012202FA01F10139F4
:104D10000840029B984005999A40013A1140084387
:104D200008B070477047000082B00190019840F2CF
:104D30000C01C2F200010968C90844F6D352C1F25D
:104D40006202A1FB0221890948430090FFE700BFEE
:104D5000FFE70098411E00910028F8D1FFE702B05C
:104D6000704700007047000080B582B00090009846
:104D70000138B0F1807F03D3FFE70120019019E0F3
:104D8000009801384EF21401CEF2000108604FF095
:104D9000FF300F2100F03CFC4EF21801CEF2000172
:104DA000002008604EF21002CEF2000207211160CE
:104DB0000190FFE7019802B080BD000080B5FDF7CB
:104DC00045FA80BD80B590B006A800902821FBF779
:104DD00073FA0098002305930493039302930193BD
:104DE000012206924FF48031079108930A92022221
:104DF0000D920E914FF4E0110F91FDF795FC18B153
:104E0000FFE7FCF741FBFFE70F2001900221029131
:104E1000002003904FF480620492059001A8FDF7F2
:104E2000CFFA18B1FFE7FCF72FFBFFE710B080BD0A
:104E30007047000080B540F27810C2F20000FEF723
:104E4000DDF980BD83B00290019102980068009066
:104E5000029842F60041C4F20101884215D0FFE7F2
:104E60000298B0F1804F10D0FFE7029840F2004165
:104E7000C4F20001884208D0FFE7029840F6000122
:104E8000C4F2000188420AD1FFE7009820F07000C8
:104E9000009001984168009808430090FFE702984D
:104EA00042F60041C4F20101884215D0FFE70298A2
:104EB000B0F1804F10D0FFE7029840F20041C4F2F9
:104EC0000001884208D0FFE7029840F60001C4F2D2
:104ED000000188420AD1FFE7009820F4407000905A
:104EE0000198C168009808430090FFE7009820F0FF
:104EF0008000019949690843009000980299086070
:104F0000019880680299C8620198006802998862D5
:104F1000029842F60041C4F20101884205D1FFE740
:104F20000198006902990863FFE70299012048612E
:104F300002980069C00730B1FFE70299086920F0C4
:104F400001000861FFE703B07047000084B00390E0
:104F500002910192029800F01F0101208840009008
:104F6000009A0399086A904308620198029901F037
:104F70001F0100FA01F20399086A1043086204B0A5
:104F80007047000085B00490039102920193049849
:104F900080680090009820F47F4000900398029968
:104FA000019A41EA022101430098084300900098C9
:104FB0000499886005B0704783B00290019102980F
:104FC00080680090009820F070000090019800998F
:104FD000084340F00700009000980299886003B0F1
:104FE0007047000085B0049003910498006A019016
:104FF0000499086A20F00100086204984068009053
:10500000049880690290029820F070000290029843
:1050100020F0030002900398016802980843029070
:10502000019820F0020001900398816801980843DC
:105030000190049842F60041C4F2010188420ED169
:10504000FFE7019820F0080001900398C1680198DB
:1050500008430190019820F004000190FFE70498B4
:1050600042F60041C4F20101884213D1FFE70098E3
:1050700020F480700090009820F400700090039855
:10508000416900980843009003988169009808439B
:105090000090FFE70098049948600298049988619D
:1050A000039840680499486301980499086205B020
:1050B0007047000085B0049003910498006A019045
:1050C0000499086A20F01000086204984068009073
:1050D000049880690290029820F4E04002900298BF
:1050E00020F44070029003980168029840EA012081
:1050F0000290019820F020000190039881680198A7
:1051000040EA01100190049842F60041C4F2010106
:1051100088420FD1FFE7019820F0800001900398AA
:10512000C168019840EA01100190019820F0400008
:105130000190FFE7049842F60041C4F20101884261
:1051400015D1FFE7009820F480600090009820F4CB
:105150000060009003984169009840EA8100009047
:1051600003988169009840EA81000090FFE7009869
:1051700004994860029804998861039840680499EA
:10518000886301980499086205B0704785B004905F
:1051900003910498006A01900499086A20F48070D1
:1051A00008620498406800900498C06902900298D0
:1051B00020F070000290029820F003000290039803
:1051C0000168029808430290019820F40070019051
:1051D00003988168019840EA01200190049842F602
:1051E0000041C4F2010188420FD1FFE7019820F489
:1051F000006001900398C168019840EA0120019085
:10520000019820F480600190FFE7049842F6004185
:10521000C4F20101884215D1FFE7009820F48050C4
:105220000090009820F40050009003984169009885
:1052300040EA0110009003988169009840EA01104B
:105240000090FFE700980499486002980499C861AB
:10525000039840680499C86301980499086205B0EE
:105260007047000085B0049003910498006A019093
:105270000499086A20F480500862049840680090FD
:105280000498C0690290029820F4E04002900298CD
:1052900020F44070029003980168029840EA0120CF
:1052A0000290019820F400500190039881680198C1
:1052B00040EA01300190049842F60041C4F2010135
:1052C00088420BD1FFE7009820F4804000900398BB
:1052D0004169009840EA81100090FFE70098049926
:1052E000486002980499C86103984068049908646A
:1052F00001980499086205B07047000085B00490D9
:10530000039102920498006A00900499086A20F0C0
:1053100001000862049880690190019820F0F00073
:1053200001900299019840EA01100190009820F044
:105330000A0000900399009808430090019804998E
:10534000886100980499086205B0704785B00490A0
:10535000039102920498006A00900499086A20F070
:1053600010000862049880690190019820F4704050
:1053700001900299019840EA01300190009820F0D4
:10538000A00000900399009840EA01100090019855
:105390000499886100980499086205B0704700007C
:1053A00084B00390FFE7FFE70398006850E8030F1D
:1053B00020F490700290FFE702990398026842E897
:1053C00003100028F0D1FFE7FFE7FFE7FFE70398AE
:1053D000006850E8050F20F001000190FFE70199F7
:1053E0000398026842E805100028F0D1FFE7FFE7C4
:1053F0000398006B012814D1FFE7FFE7FFE703984C
:10540000006850E8030F20F010000090FFE70099BB
:105410000398026842E803100028F0D1FFE7FFE795
:10542000FFE70399202081F84200039900200863D8
:1054300004B0704780B584B0039003980068006999
:1054400020F44050039A1168D26810430861039910
:1054500088680A6949691043084302900398006804
:10546000C06841F20C6188430299084303990968B6
:10547000C86003980068406920F44070039A11687E
:105480009269104348610398006843F60001C4F232
:105490000101884204D1FFE7FDF7D6F8019003E04F
:1054A000FDF7C0F80190FFE7019819214843039ADE
:1054B000116852689200B0FBF2FC48F21F52C5F22C
:1054C000EB12ACFB02304309642003FB10CC32200A
:1054D00000EB0C10A0FB0202F02000EA521000EBDF
:1054E0000310C2F343121044886004B080BD000072
:1054F00080B586B0DDF820C0049003918DF80B20B4
:105500000193FFE704980068006803990840401A77
:10551000B0FA80F040099DF80B1088424DD1FFE7AA
:1055200008980130002847D0FFE7FCF77FF9019980
:10553000401A0899884203D8FFE7089820B9FFE786
:1055400003208DF817003CE004980068C06840070D
:10555000002830D5FFE7039880282CD0FFE7039878
:10556000402828D0FFE704980068006800F0080190
:105570000120B0EBD10F1DD1FFE7FFE70020009025
:1055800004980068006800900498006840680090E3
:105590000098FFE70498FFF703FF04990820486488
:1055A000FFE70499002081F84000FFE701208DF813
:1055B000170006E0FFE7FFE7A4E700208DF81700DB
:1055C000FFE79DF8170006B080BD0000FFE7FEE78B
:1055D00081B08DF803009DF9030000280ED4FFE789
:1055E0009DF9031001F01F02012090404A094EF27C
:1055F0000011CEF2000141F82200FFE701B0704730
:105600004EF60C50CEF200000068C0F30220704746
:1056100082B08DF8070000919DF9070000280AD498
:10562000FFE7009800019DF907104EF20042CEF20C
:10563000000288540BE0009800019DF8071001F06B
:105640000F014EF61452CEF200028854FFE702B06A
:105650007047000083B00290029800F007000090AD
:105660004EF60C51CEF200010868019001984FF6F9
:10567000FF02104001900198009A40EA02200022A7
:10568000C0F2FA52104301900198086003B07047CD
:1056900080B582B00190009140F2C010C2F20000CB
:1056A00001A901224FF0FF33FEF746F9019802B03D
:1056B00080BD000070B5A8B000202790FCF7D4FD95
:1056C000FFF780FBFEF7DCFFFFF754F8FFF776F8F3
:1056D000FFF730F9FFF7ECF840F2DC00C2F200000F
:1056E000FEF77CFEF8B1FFE741F20000C4F20100D2
:1056F00023904FF4005124910022FCF77FF847F6E5
:105700001920C0F60000FAF7CBFD4FF47A7025900F
:10571000FBF7C2FE239824990122FCF76FF8259825
:10572000FBF7BAFE08E047F6FE10C0F60000FAF7F5
:10573000B7FDFBF7A9FEFFE76420FBF7ADFE41F2E2
:105740000000C4F2010021904FF400511F9100228B
:105750002292FCF753F847F6D310C0F60000FAF790
:105760009FFD40F2DC00C2F200001D9040F21021CB
:10577000C2F200011E91FEF7B7FD1E98C06A01F04B
:10578000C9FB02460B4647F66F20C0F60000FAF749
:1057900087FD1E991D98FEF7FBFE1D981E9940F28D
:1057A0001002C2F200021268FEF7CAFD1E98416A9A
:1057B000816281691791416A1691806A01F0AAFBA2
:1057C0000246169819921A9101F0A4FB0246179806
:1057D0001B92189101F09EFBDDF860C0199A1A9B8C
:1057E00086461B980C466946CC60C1F808E0C1F8B3
:1057F00004C0086047F6C820C0F60000FAF750FD64
:105800004FF47A701C90FBF747FE21981F990122F4
:105810002092FBF7F3FF1C98FBF73EFE21981F999F
:10582000229AFBF7EBFF47F6A610C0F60000FAF746
:1058300037FD40F6B830FBF72FFE1D981E99FEF796
:105840001DFD1E98006B01F065FB02460B4647F6F6
:105850003D20C0F60000FAF723FD1F99209A2198F9
:10586000FBF7CCFF40F27810C2F20000FDF7A8FB76
:10587000FFF7F8F822988DF89B00FFE740F2D80078
:10588000C2F200000078002800F06381FFE740F2D8
:10589000D801C2F2000100201590087040F2DC002F
:1058A000C2F20000139040F21021C2F200011491E4
:1058B000FEF76EFE1398149940F21002C2F2000235
:1058C0001268FEF73DFD1498806A01F023FB159ADB
:1058D00021F000410023C4F23E0301F0CBFBF0B9FC
:1058E000FFE7FFF7DBF940F24C21C2F20001002094
:1058F000086040F21020C2F20000806940F6DB71BF
:10590000C4F2490101F074FD0021C4F2343101F008
:10591000F5FB40F24421C2F200010860CEE040F203
:105920001020C2F20000816A006B01F0BFFE014648
:1059300040F2D400C2F200000160006840F21001A1
:10594000C2F20001096840F20822C2F2000212927B
:105950001268119201F04CFD119901F007FB01460C
:105960001298016000680021CCF2483101F0A5FBDB
:1059700048B9FFE740F20821C2F200010020CCF252
:1059800048300860FFE740F20820C2F200000068DB
:105990000021C4F2483101F097FB48B9FFE740F21B
:1059A0000821C2F200010020C4F248300860FFE77D
:1059B00040F2D400C2F20000006820F000404FF036
:1059C0007F5101F07AFBF0B9FFE7FFF767F940F28A
:1059D0004C21C2F200010020086040F21020C2F207
:1059E0000000806940F6DB71C4F2490101F000FD5E
:1059F0000021C4F2343101F081FB40F24421C2F2B3
:105A00000001086059E040F20000C2F2000040F2DC
:105A10001022C2F200029169926A0E9202680F92FD
:105A2000406801F0E5FC0E9902460F98109201F0D3
:105A3000DFFC109901F03AFE014640F24C20C2F220
:105A40000000016000680021C4F2484101F03CFB05
:105A500048B9FFE740F24C21C2F200010020C4F235
:105A600048400860FFE740F24C20C2F200000068A6
:105A70000021CCF2484101F020FB48B9FFE740F299
:105A80004C21C2F200010020CCF248400860FFE740
:105A900040F24C20C2F200000D90006880F00040FF
:105AA00001F022FCFEF7FCFF0D98006880F000403A
:105AB00001F01AFCFFF774F8FFE7FFE79DF89B0081
:105AC0000A2840D1FFE700208DF89B0040F210210A
:105AD000C2F2000188690790886A096B01F0E6FD4F
